:100000000EC015C014C013C012C011C010C00FC064
:1000100063C00DC00CC00BC00AC009C008C01124C9
:100020001FBECFE5D1E0DEBFCDBF69D085C0E8CF30
:10003000F89484B7877F84BF81B5886181BD11BC86
:1000400087B38B6087BB10BC80E888B986BD83E02E
:1000500086BD7894089584E090E026B3236026BBA3
:10006000E7EAF1E63197F1F700C000000197A9F740
:1000700084E090E0B09AE7EAF1E63197F1F700C04A
:1000800000000197B9F788B3836088BBFFE728E3D6
:1000900081E0F15020408040E1F700C0000088B3CB
:1000A0008C7F88BB9FE7E8E3F1E09150E040F040AF
:1000B000E1F700C00000089583EA8ABD82E083BFB3
:1000C00080E589BD88BD089586B18F6886B9359A67
:1000D00081E087B9369A08951F920F920FB60F925A
:1000E00011248F9385B1811103C080E588BD01C0C3
:1000F00018BC8F910F900FBE0F901F90189598DF2E
:10010000AADFDADFE1DF19BC89B58F5F89BD8823FB
:1001100039F083EC99E00197F1F700C00000F4CFCB
:1001200089B5815089BD882379F383EC99E00197E3
:0C013000F1F700C00000F4CFF894FFCFFE
:00000001FF
